:020000000C945E
:1000020054000C9400000C9400000C9400000C941A
:1000120000000C9400000C9400000C9400000C945E
:1000220000000C9400000C9400000C9400000C944E
:1000320000000C9400000C9400000C9400000C943E
:1000420000000C9400000C9400000C9400000C942E
:1000520000000C9400000C9400000C9400000C941E
:1000620000000C9400000C9400000C9400000C940E
:1000720000000C9400000C9400000C9400000C94FE
:1000820000000C9400000C9400001027E8036400A8
:100092000A000100001000011000010080C00200EF
:1000A20000059E000000F894EE27ECBBF1E0F5BFDE
:1000B200E5BFE0936C008DE0A2E0BB27ED938A954B
:1000C200E9F780E090E1A0E0B1E0ED930197E9F774
:1000D200E0EAF0E085919591009761F0A591B591E4
:1000E20005901590BF01F00105900D920197E1F77F
:1000F200FB01F0CF8BBFEFEFEDBFE0E1EEBFC0E061
:10010200D5E00C94840010E000E0E8E0E7BBE0E01A
:10011200E8BBEFE0E1BBE0E4EDB9E0E0EEB9A0E17D
:10012200AAD023D05E2E103129F410E00F5F0230E6
:1001320009F400E01A93A02F6FD0A52D89D0E1E633
:10014200E51511F416D00EC0E2E6E51511F413D050
:1001520009C0E3E6E51511F41BD004C0E4E6E51599
:1001620009F434D01F5FDDCFFFCF779BFECFEFB115
:100172000895EFE02CC0A42DBB27E2E0F0E0C8D048
:10018200309711F0E3E001C0ECE0E2BB4394089544
:10019200E72DF0E0309711F4E1E011C0E130A0E08A
:1001A200FA0711F4E2E00BC0E230A0E0FA0711F422
:1001B200E4E005C0E330A0E0FA0711F4E8E0E2BBB6
:1001C2007394E4E07E1608F077240895E0E0E2BB41
:1001D20008951A931A2FEBB3EF70AE2FE12FE07F41
:1001E200EA2BEBBB8BE18A95F1F7DA9A8BE18A95E0
:1001F200F1F7DA988BE18A95F1F766C0AA93A881A4
:10020200E8DFE881E295E883A881E3DF88EC90E00B
:100212000197F1F7219608951A930A931A2F0A81EA
:10022200E12FF0E0E050FB4FE081E00FAE2FE6DF80
:10023200602E912E1981088123960895A2E046D05E
:10024200ACE0DCDFA1E042D0E0E09E2E6E2E08950D
:100252001A931A2F1A3011F0681438F0E0E0EA937A
:100262009394A92DD9DF1A3079F16394D89AA12FEA
:10027200C5DFD89829C01A931A2FEAB3E06FEABBF8
:10028200D29AD09AD19ADA98D898D998812EE12F19
:10029200E058E0930205E12FE054E0930305A4E166
:1002A200B0E044D017D016D015D0A0E292DF80E99A
:1002B20091E00197F1F7A8E2A1DFA4E09FDFA5E8B2
:1002C2009DDFA6E09BDFBADF1991089597DFA3E0D7
:1002D200B0E02CC0A0E37DDF80E991E00197F1F767
:1002E2000895F195E195F04008950024112490E1DC
:1002F200AA0FBB1F001C111C0E1A1F0A18F40E0EA7
:100302001F1E01C0A1609A9599F7FD01D0010895C1
:10031200E894B7FF04C0B195A195B0406894F7FD89
:10032200E0DFE3DFFD010EF4DCDF0895109639F023
:10033200A89580EA9FE00197F1F71197C9F7089510
:00000001FF
