:100000000C944F000C9400000C9400000C94000021
:100010000C9400000C9400000C9400000C94000060
:100020000C9400000C9400000C9400000C94000050
:100030000C9400000C9400000C9400000C94000040
:100040000C9400000C9400000C9400000C94000030
:100050000C9400000C9400000C9400000C94000020
:100060000C9400000C9400000C9400000C94000010
:100070000C9400000C9400000C9400000C94000000
:100080000C9400000C9400000C9400001027E8036E
:1000900064000A0001000010000110000100F89443
:1000A000EE27ECBBF1E0F5BFE5BFE0936C008DE01F
:1000B000A2E0BB27ED938A95E9F780E090E1A0E00C
:1000C000B1E0ED930197E9F78BBFEFEFEDBFE0E112
:1000D000EEBFC0E0D5E00C946D00E7E0E7BBE0E0E8
:1000E000E8BBEBB9E0E1EAB9E6E0E0939500E0E0D7
:1000F000E0939000E7E6E9B9E3E5EDB9E0E0EEB9B9
:1001000004D0AE2F06D0FCCFFFCF5F9BFECFECB16B
:1001100008951A931A2F1FB9779BFECF199108954E
:00000001FF
