:0E0000000C9446000C9400000C9400000C942C
:10000E0000000C9400000C9400000C9400000C9462
:10001E0000000C9400000C9400000C9400000C9452
:10002E0000000C9400000C9400000C9400000C9442
:10003E0000000C9400000C9400000C9400000C9432
:10004E0000000C9400000C9477000C9400000C94AB
:10005E0000000C9400000C9400000C9400000C9412
:10006E0000000C9400000C9400000C9400000C9402
:10007E0000000C9400000C9400000C940000F89406
:10008E00EE27ECBBF1E0F5BFE5BFE0936C008DE031
:10009E00A2E0BB27ED938A95E9F780E090E1A0E01E
:1000AE00B1E0ED930197E9F78BBFEFEFEDBFE0E124
:1000BE00EEBFC0E0D5E00C946400EFEFEABBE1BB0D
:1000CE00E0E0E0936100E0E1E7B9EFE8E6B9E0E8EF
:1000DE00EFBFEFECE6B9A5E0B0E000D1FACFFFCF6D
:1000EE000A921A92FA926A937A938A939A93AA939D
:1000FE00BA93EA93FA93EFB7EA9380D0E4B1F5B1ED
:10010E0042D0299B1CC0E4B1F5B1AFEFBFEF90D048
:10011E0066277727EF5FFF4F6F4F7F4FAFEFB0E050
:10012E0080E090E0C3D0E0930005F093010560936A
:10013E0002057093030532D03AD0E0EE07C0E4B169
:10014E00F5B1F07020D02AD032D0EFEEE2BBA2E0B3
:10015E00B0E0C4D0E32FE06D4DD0E02FE06B4AD07D
:10016E00E12FE06747D04FD02496E991EFBFF99188
:10017E00E991B991A9919991899179916991F990A2
:10018E0019900990189566277727E0930005F0934C
:10019E00010560930205709303050895A091000573
:1001AE00B091010580910205909103050895E4E652
:1001BE00F0E060E070E068D0DF01CB01EAE0F0E053
:1001CE0060E070E066D03E2FE9DFEAE0F0E060E04C
:1001DE0070E05AD0DF01CB01EAE0F0E060E070E0C1
:1001EE0058D00E2FDBDFEAE0F0E060E070E051D097
:1001FE001E2F0895E2BBA2E0B0E070C03A932A939E
:10020E001A930A9308953B812A81198108810895D2
:10021E00F09560957095E195FF4F6F4F7F4F089564
:10022E00B09580959095A195BF4F8F4F9F4F089594
:10023E00FA9FF02DEB9FF00DEA9FE02DF10D089542
:10024E003F934F935F9300241124A00130E2AA0F35
:10025E00BB1F881F991F001C111C441F551F0E1A0F
:10026E001F0A460B570B28F40E0E1F1E461F571F54
:10027E0001C0A1603A9559F7FD01BC01D001CA0138
:10028E005F914F913F9108951DD0DADF0EF4C0DFDC
:10029E000895E89497FF02C0C3DF689477FDB8DF36
:1002AE00CFDFFD01BC010EF4B3DF0895E89477FFB4
:1002BE0002C0AEDF6894EA23FB23682379230EF491
:1002CE00A7DF0895E89477FF02C0A2DF689497FF36
:1002DE0004C0A6DF00F8039400FA0895109639F0D2
:1002EE00A89580ED97E00197F1F71197C9F708955A
:00000001FF
