:020000000C945E
:1000020046000C9400000C9400000C9400000C9428
:1000120000000C9479000C948D000C9400000C9458
:1000220000000C9400000C9400000C9400000C944E
:1000320000000C9400000C9400000C9400000C943E
:1000420000000C9400000C9400000C9400000C942E
:1000520000000C9400000C9400000C9400000C941E
:1000620000000C9400000C9400000C9400000C940E
:1000720000000C9400000C9400000C9400000C94FE
:1000820000000C9400000C940000F894EE27ECBBE6
:10009200F1E0F5BFE5BFE0936C008DE0A2E0BB2785
:1000A200ED938A95E9F780E090E1A0E0B1E0ED936D
:1000B2000197E9F78BBFEFEFEDBFE0E1EEBFC0E0E4
:1000C200D5E00C946400EFEFE7BBEAE0EABFE0E3BF
:1000D200E9BFE0E0E8BFE0E8EFBFE1E8EFBDE5E05F
:1000E200EEBDE0E0F0E0FDBDECBD4ABCFECFFFCFCF
:1000F200EA93FA93EFB7EA93F2013A962F01EFEF00
:10010200F0E0E415F5051CF4EAEFF0E02F01E991C7
:10011200EFBFF991E99118950A92EA93FA93EFB732
:10012200EA93F2013A972F0100244014500414F488
:1001320044245524E991EFBFF991E991099018956A
:00000001FF
