:0E0000000C9446000C9400000C9400000C942C
:10000E0000000C9400000C9400000C9400000C9462
:10001E0000000C9400000C9400000C9400000C9452
:10002E0000000C9400000C9400000C9400000C9442
:10003E0000000C9400000C9400000C9400000C9432
:10004E0000000C9400000C9400000C9400000C9422
:10005E0000000C9400000C9400000C9400000C9412
:10006E0000000C9400000C9400000C9400000C9402
:10007E0000000C9400000C9400000C940000F89406
:10008E00EE27ECBBF1E0F5BFE5BFE0936C008DE031
:10009E00A2E0BB27ED938A95E9F780E090E1A0E01E
:1000AE00B1E0ED930197E9F78BBFEFEFEDBFE0E124
:1000BE00EEBFC0E0D5E00C946400E0E0E4BBEFEFEF
:1000CE00E1BB0ED0E3B3E03049F00AD0E3B3E03049
:1000DE0021F4F20131962F0101C0F7CFF2CFFFCFFD
:1000EE002DD0D201E8EEF3E01FD02E2FD201E4E6A0
:1000FE00F0E01AD03E2FD201EAE0F0E015D00E2F3C
:10010E00D201EAE0F0E037D01E2FE22FE06E12D0DF
:10011E00E32FE06D0FD0E02FE06B0CD0E12FE06706
:10012E0009D011D02496089513D0DF01EAE0F0E053
:10013E0022D00895E2BBA2E0B0E020C03A932A9309
:10014E001A930A9308953B812A8119810881089593
:10015E000024112490E1AA0FBB1F001C111C0E1AC3
:10016E001F0A18F40E0E1F1E01C0A1609A9599F772
:10017E00FD01D0010895ECDFFD010895109639F0D0
:10018E00A89580ED97E00197F1F71197C9F70895BB
:00000001FF
