:080000000C9446000C94000072
:100008000C9400000C9400000C9400000C94000068
:100018000C9400000C9400000C9400000C94000058
:100028000C9400000C9400000C9400000C94000048
:100038000C9400000C9400000C9400000C94000038
:100048000C9400000C9400000C9400000C94000028
:100058000C9400000C9400000C9400000C94000018
:100068000C9400000C9400000C9400000C94000008
:100078000C9400000C9400000C9400000C940000F8
:100088000C940000F894EE27ECBBF1E0F5BFE5BF57
:10009800E0936C008DE0A2E0BB27ED938A95E9F729
:1000A80080E090E1A0E0B1E0ED930197E9F78BBF24
:1000B800EFEFEDBFE0E1EEBFC0E0D5E00C946400E7
:1000C800EFE0E7BBE0EFE0936100E0E0F0E0F5B9D6
:1000D800E4B9AFE819D0F0E0DF01E6E0F0E03BD0AA
:1000E800E65F5E2EE1E01CD0E9E01AD0E4E018D02B
:1000F800E5E016D0E2E014D0E6E012D0E8E010D057
:10010800EAE00ED0E6CFFFCF1A931A2FE0E2E7B964
:1001180016B9369A8BE18A95F1F7E5B119910895E8
:10012800E8BBA52DBB272AC0F195E195F0400895BD
:100138000024112490E1AA0FBB1F001C111C0E1AE9
:100148001F0A18F40E0E1F1E01C0A1609A9599F798
:10015800FD01D001089504D0EBDF0EF4E5DF08952A
:10016800E894F7FF02C0E0DF6894B7FF06C0B195D6
:10017800A195B04000F8039400FA0895109639F05C
:10018800A89580ED97E00197F1F71197C9F70895C1
:00000001FF
