:0C0000000C944C000C9400000C940000C8
:10000C000C9400000C9400000C9400000C94000064
:10001C000C9400000C9400000C9400000C94000054
:10002C000C9400000C9400000C9400000C94000044
:10003C000C9400000C9400000C9400000C94000034
:10004C000C9400000C9400000C9400000C94000024
:10005C000C9400000C9400000C9400000C94000014
:10006C000C9400000C9400000C9400000C94000004
:10007C000C9400000C9400000C9400000C940000F4
:10008C0010204080040000058C000000F894EE273E
:10009C00ECBBF1E0F5BFE5BFE0936C008DE0A2E0B6
:1000AC00BB27ED938A95E9F780E090E1A0E0B1E001
:1000BC00ED930197E9F7E0E9F0E0859195910097D0
:1000CC0061F0A591B59105901590BF01F0010590D7
:1000DC000D920197E1F7FB01F0CF8BBFEFEFEDBF76
:1000EC00E0E1EEBFC0E0D5E00C947C00E0EFEABBB1
:1000FC00EFEFE1BBAA2009F496D0AB2DE4E160D17F
:10010C000E2EEEE15DD1E02951F0842C44245524CF
:10011C0011D0C7D0992011F0E9D001C0F9CFC1D0CE
:10012C00E1E0EA1529F4E0910305EBBBC89BAA2496
:10013C00E1CFFFCF13D119F41BD1E1E014C0E130B2
:10014C00A0E0FA0719F414D1E4E00DC0E230A0E00D
:10015C00FA0719F40DD1E7E006C0E330A0E0FA0786
:10016C0019F406D1EAE06E2EA5E0B0E06FD1C89B81
:10017C001EC0E4E1EB1519F4EAE0E61509F406C03B
:10018C00462C5524E42DE80D9E2E10C0EEE1EB1507
:10019C0019F4EAE0E61509F404C0E82DE4199E2EE2
:1001AC0005C0EAE0E61511F0462C55243BC0C99B6E
:1001BC001CC0E4E1EB1519F4EAE0E61509F405C0FE
:1001CC00DED0E42DE80D9E2E0FC0EEE1EB1519F4F8
:1001DC00EAE0E61509F404C0E82DE4199E2E04C0EB
:1001EC00EAE0E61509F0CBD01DC0CA9B1BC0E4E1C8
:1001FC00EB1519F4EAE0E61509F405C0C5D0E42DB9
:10020C00E80D9E2E0FC0EEE1EB1519F4EAE0E615B1
:10021C0009F404C0E82DE4199E2E04C0EAE0E615AA
:10022C0009F0B2D008959AD019F4A2D0E1E014C02C
:10023C00E130A0E0FA0719F49BD0E4E00DC0E23005
:10024C00A0E0FA0719F494D0E7E006C0E330A0E090
:10025C00FA0719F48DD0EAE06E2EA5E0B0E0F6D0E6
:10026C00C89B09C0EAE0E61519F4E4E1BE2E02C011
:10027C00462C552415C0C99B07C081D0EAE0E61571
:10028C0011F4442455240CC0CA9B08C0EAE0E615BE
:10029C0019F4EEE1BE2E01C077D002C0E8E2BE2E0A
:1002AC00089580D0D201EAE0F0E0A7D01E2FA82D4F
:1002BC0070D00E2FA92D6DD03E2FA92DB0E0EAE005
:1002CC00F0E096D0DF01EAE0F0E09AD02E2FE12F9B
:1002DC00E06764D0E02FE06B61D0E32FE06D5ED07F
:1002EC00E22FE06E5BD063D024960895AA2071F5BE
:1002FC0035D019F43DD0E1E014C0E130A0E0FA07AC
:10030C0019F436D0E4E00DC0E230A0E0FA0719F49D
:10031C002FD0E7E006C0E330A0E0FA0719F428D0AC
:10032C00EAE06E2EA5E0B0E091D0C89B06C0EAE0F2
:10033C00E61511F4E1E0AE2E07C0CA9B05C0EAE059
:10034C00E61511F4E1E0AE2EACDFD0CF77246624B5
:10035C0099248824BB244424552408957394E72DB0
:10036C00F0E0A3E0B0E05AD07E2EF0E03097089594
:10037C00E72DF0E0E050FB4FE081EBBB0895E62D5C
:10038C00F0E031962F010895E62DF0E032962F0122
:10039C000895BB27EAE0F0E033D00895E2BBA5E076
:1003AC00B0E054C03A932A931A930A9308953B8170
:1003BC002A81198108810895F195E195F0400895FD
:1003CC00EA17E1E009F0EE2708950024112490E1EA
:1003DC00AA0FBB1F001C111C0E1A1F0A18F40E0EBC
:1003EC001F1E01C0A1609A9599F7FD01D0010895D7
:1003FC001FD0EBDF0EF4E0DF0895E7DFFD01089579
:10040C00E894B7FF04C0B195A195B0406894F7FD8E
:10041C00D3DFDBDFFD010EF4CFDF0895E894F7FFA7
:10042C0002C0CADF6894EA23FB230EF4C5DF0895EB
:10043C00E894F7FF02C0C0DF6894B7FF06C0B1951F
:10044C00A195B04000F8039400FA0895109639F085
:10045C00A89580ED97E00197F1F71197C9F70895EA
:00000001FF
