:020000000C945E
:1000020046000C9400000C9400000C9400000C9428
:1000120000000C9400000C9400000C9400000C945E
:1000220000000C9400000C9400000C9400000C944E
:1000320000000C9400000C9400000C9400000C943E
:1000420000000C9400000C9400000C9400000C942E
:1000520000000C9400000C9400000C9400000C941E
:1000620000000C9400000C9400000C9400000C940E
:1000720000000C9400000C9400000C9400000C94FE
:1000820000000C9400000C940000F894EE27ECBBE6
:10009200F1E0F5BFE5BFE0936C008DE0A2E0BB2785
:1000A200ED938A95E9F780E090E1A0E0B1E0ED936D
:1000B2000197E9F78BBFEFEFEDBFE0E1EEBFC0E0E4
:1000C200D5E00C94640040E050E0E0E0E4BBEFEFE8
:1000D200E1BBE3B3E03011F04F5F5F4FDA01E8EECE
:1000E200F3E024D02E2FDA01E4E6F0E01FD03E2F19
:1000F200DA01EAE0F0E01AD00E2FDA01EAE0F0E0ED
:1001020032D01E2FE22FE06E17D0E32FE06D14D015
:10011200E02FE06B11D0E12FE0670ED04F30E7E225
:100122005E0710F040E050E0D4CFFFCF09D0DF01EE
:10013200EAE0F0E018D00895E2BBAAE0B0E016C011
:100142000024112490E1AA0FBB1F001C111C0E1ADF
:100152001F0A18F40E0E1F1E01C0A1609A9599F78E
:10016200FD01D0010895ECDFFD010895109639F0EC
:10017200A89580EA9FE00197F1F71197C9F70895D2
:00000001FF
