:100000000C9452000C9400000C9400000C9400001E
:100010000C9400000C9400000C9400000C94000060
:100020000C9400000C9400000C9400000C94000050
:100030000C9400000C9400000C9400000C94000040
:100040000C9400000C9400000C9400000C94000030
:100050000C9400000C94EB000C9400000C94000035
:100060000C9400000C9400000C9400000C94000010
:100070000C9400000C9400000C9400000C94000000
:100080000C9400000C9400000C9400002020202010
:100090002020002D412F4420434F4E5645525449B5
:1000A0004F4E2D00F894EE27ECBBF1E0F5BFE5BF15
:1000B000E0936C008DE0A2E0BB27ED938A95E9F711
:1000C00080E090E1A0E0B1E0ED930197E9F78BBF0C
:1000D000EFEFEDBFE0E1EEBFC0E0D5E00C94DA0059
:1000E0001A931A2FECEF03C01A931A2FEDEFE09337
:1000F000650012BBA0916500E4E0EA27E09365008B
:10010000A2E0B0E0B3D019910895AFE0B0E0AED076
:10011000A8E3E6DFACE0E4DFA6E0E2DF089564D028
:100120009D0100E010E08901F801E491E03031F038
:10013000F8010F5F1F4FA491D7DFF6CF21C054D035
:10014000A0ECCEDFA52DBB27EAE0F0E073D01E2F98
:10015000A52DB0E0EAE0F0E041D00E2FA52DB0E0F3
:10016000E4E6F0E03BD03E2FACE8B0E0D8DFA32FD0
:10017000A05DBADFA02FA05DB7DFA12FA05DB4DF27
:1001800038D024960895E7E6E3BFE0E0E2BFE0E27E
:10019000E7B9E0E8EFBFEFEFEABBE7BBE1BBE0E0C8
:1001A000E0936100EFE0E0936400EFEFE2BBE093E7
:1001B00065000895E8DFA9DFA0E892DFA3E9B0E0D9
:1001C000AEDFBDDFEFE8E6B9EFECE6B9A5E0B0E001
:1001D0004DD0F7CFFFCF55B051BE189526D0DF01D7
:1001E000EAE0F0E027D008953A932A931A930A930D
:1001F00008953B812A81198108810895F195E1953F
:10020000F04008950024112490E1AA0FBB1F001CA8
:10021000111C0E1A1F0A18F40E0E1F1E01C0A16039
:100220009A9599F7FD01D001089512D0EBDF0EF4F5
:10023000E5DF0895E894B7FF04C0B195A195B040FB
:100240006894F7FDDBDFDEDFFD010EF4D7DF0895F4
:10025000E894F7FF02C0D2DF6894B7FF06C0B195FB
:10026000A195B04000F8039400FA0895109639F073
:10027000A89580EA9FE00197F1F71197C9F70895D3
:00000001FF
