:0C0000000C9463000C9400000C940000B1
:10000C000C9400000C9400000C9400000C94000064
:10001C000C9400000C9400000C9400000C94000054
:10002C000C9400000C9400000C9400000C94000044
:10003C000C9400000C9400000C9400000C94000034
:10004C000C9400000C9400000C94C9000C9400005B
:10005C000C9400000C9400000C9400000C94000014
:10006C000C9400000C9400000C9400000C94000004
:10007C000C9400000C9400000C9400000C940000F4
:10008C001027E80364000A000100001000011000B2
:10009C0001002D412F4420434F4E56455253494F9A
:1000AC004E2D003130424954204445432D3E000032
:1000BC0080C002000005BC000000F894EE27ECBBE9
:1000CC00F1E0F5BFE5BFE0936C008DE0A2E0BB274B
:1000DC00ED938A95E9F780E090E1A0E0B1E0ED9333
:1000EC000197E9F7EEEBF0E085919591009761F0BF
:1000FC00A591B59105901590BF01F00105900D9259
:10010C000197E1F7FB01F0CF8BBFEFEFEDBFE0E123
:10011C00EEBFC0E0D5E00C9493002AD0A0E1F6D05D
:10012C00ACD0E0E0EA93A0E09AD0AEE9B0E0CBD05E
:10013C00E0E0EA93A1E093D0AFEAB0E0C4D0EFECFA
:10014C00E6B9A5E0B0E052D1EFE8E6B9EBE0EA930E
:10015C00A1E085D0A62DA05D9DD0A72DA05D9AD045
:10016C00A42DA05D97D0A52DA05D94D0E8CFFFCF96
:10017C00EFEFE1BBE0E0E0936100E7B9EFE8E6B94F
:10018C00E0E8EFBF08950A921A929A93AA93BA9351
:10019C00EA93FA93EFB7EA931A930A9300E010E00C
:1001AC00E4B1F5B1F3708F01D801EAE0F0E002D1CF
:1001BC005E2ED801EAE0F0E0DBD04E2ED801E4E66A
:1001CC00F0E0D6D07E2ED801E8EEF3E0D1D06E2E42
:1001DC0009911991E991EFBFF991E991B991A9911F
:1001EC009991199009901895FFE0FA95F1F70895F7
:1001FC00A1B3AF70A1BB919A9098F6DF929AF4DFFD
:10020C00A0B39298F1DF929AEFDF9298A7FDF5CF09
:10021C000895A07FAB2BA2BB929AE6DF9298E4DF05
:10022C000895AA939198A1B3A76FA1BBB2B3BF7065
:10023C00A881EFDFA881A295ECDF919A0C94BC0108
:10024C00929AD2DFE0B39298CFDFE07F0895CCDFB3
:10025C00F7DFAE2FF5DF9198E295EA2B0895AA937C
:10026C00C7DFE881F0E0E050FB4FE081A981AE0FE1
:10027C00D8DF9980888022960895BADFA2E0D1DF7A
:10028C00B7DFACE0CEDFB4DFA1E0CBDFE0E08E2E59
:10029C009E2E0895AA93EF93FF93A8816894AA3099
:1002AC0019F0E8949B1430F08394E0E0EA93A82DC5
:1002BC00D6DF2EF093949CDF909AA881B2DFFF9149
:1002CC00EF910C94BC01BA93AA931A93E981FA8129
:1002DC003196E983FA833197E4911E2FE03019F0BF
:1002EC00A12FD8DFF3CF188123960895AA27BB2717
:1002FC001197F1F70895AA939198A1B3A76FA1BB99
:10030C00B2B3BF70A88185DF919A30C0AA9392983E
:10031C009098B880E881E058E0930205E881E054B9
:10032C00E0930305E3DFA0E3E6DFE0DFA0E3E3DF38
:10033C00DDDFA0E3E0DFDADFA0E2DDDFD7DFA8E27C
:10034C0070DFD4DFA4E06DDFD1DFA5E86ADFCEDF9C
:10035C00A1B3AF70A1BB919A7ADFE53011F0E0E068
:10036C0005C046DFA6E05DDF88DFE1E02196089559
:10037C001CD0DF01EAE0F0E01DD00895F195E19585
:10038C00F04008950024112490E1AA0FBB1F001C1B
:10039C00111C0E1A1F0A18F40E0E1F1E01C0A160AC
:1003AC009A9599F7FD01D001089512D0EBDF0EF468
:1003BC00E5DF0895E894B7FF04C0B195A195B0406E
:1003CC006894F7FDDBDFDEDFFD010EF4D7DF089567
:1003DC00E894F7FF02C0D2DF6894B7FF06C0B1956E
:1003EC00A195B04000F8039400FA0895109639F0E6
:1003FC00A89580EA9FE00197F1F71197C9F7089546
:00000001FF
