:040000000C94460016
:100004000C9400000C9400000C9400000C9400006C
:100014000C9400000C9400000C9400000C9400005C
:100024000C9400000C9400000C9400000C9400004C
:100034000C9400000C9400000C9400000C9400003C
:100044000C9400000C9400000C9400000C9400002C
:100054000C9400000C9400000C9400000C9400001C
:100064000C9400000C9400000C9400000C9400000C
:100074000C9400000C9400000C9400000C940000FC
:100084000C9400000C940000F894EE27ECBBF1E013
:10009400F5BFE5BFE0936C008DE0A2E0BB27ED93D4
:1000A4008A95E9F780E090E1A0E0B1E0ED93019753
:1000B400E9F78BBFEFEFEDBFE0E1EEBFC0E0D5E0C5
:1000C4000C946400EFEFEABBE0E0E4BBE3B3E030A0
:1000D40029F4EFE02FD0E0EF2DD027C0E130C1F4B8
:1000E400E1E0EBBBE3B3E13091F4A6E9B0E026D064
:1000F400EBB3EE0FEBBBE3B3E23019F4E3B3E2305E
:10010400E9F3EBB3E03011F4E1E0EBBBEBCF0DC06E
:10011400E23059F0E33049F410E0153030F4E0E017
:1001240009D0EFEF07D01F5FF8CF153008F4FFCFE9
:10013400CDCFFFCFEBBBA8ECB0E000C0109639F0F8
:10014400A89580EA9FE00197F1F71197C9F7089500
:00000001FF
