:060000000C9454000C9466
:1000060000000C9400000C9400000C9400000C946A
:1000160000000C9400000C9400000C9400000C945A
:1000260000000C9400000C9400000C9400000C944A
:1000360000000C9400000C9400000C9400000C943A
:1000460000000C9400000C9400000C9400000C942A
:1000560000000C9400000C9400000C9400000C941A
:1000660000000C9400000C9400000C9400000C940A
:1000760000000C9400000C9400000C9400000C94FA
:1000860000000C9400001027E80364000A00010039
:10009600001000011000010080C0020000059E0053
:1000A6000000F894EE27ECBBF1E0F5BFE5BFE09366
:1000B6006C008DE0A2E0BB27ED938A95E9F780E01E
:1000C60090E1A0E0B1E0ED930197E9F7E0EAF0E016
:1000D60085919591009761F0A591B5910590159040
:1000E600BF01F00105900D920197E1F7FB01F0CFFA
:1000F6008BBFEFEFEDBFE0E1EEBFC0E0D5E00C94C3
:100106008400E0E4EDB9E0E0EEB9A0E184D0219707
:100116002CD0E883E0E1E51539F455244394E2E078
:10012600E41511F444245AD0A881A83041F45A9415
:10013600EAEFE51508F4552499D05A9401C096D0F3
:100146005394A881AD3041F443945524E2E0E4157C
:1001560011F4442443D006C0A881AB3119F45524C8
:1001660044243CD02196D3CFFFCF779BFECFEFB16F
:1001760008951A931A2FEBB3EF70AE2FE12FE07F9D
:10018600EA2BEBBB8BE18A95F1F7DA9A8BE18A953C
:10019600F1F7DA988BE18A95F1F766C0AA93A88100
:1001A600E8DFE881E295E883A881E3DF88EC90E068
:1001B6000197F1F7219608951A930A931A2F0A8147
:1001C600E12FF0E0E050FB4FE081E00FAE2FE6DFDD
:1001D600702E612E1981088123960895A2E04BD0D6
:1001E600ACE0DCDFA1E047D0E0E06E2E7E2E089585
:1001F6001A931A2F1A3011F0791438F0E0E0EA93C6
:100206006394A62DD9DF1A3079F17394D89AA12F69
:10021600C5DFD89829C01A931A2FEAB3E06FEABB54
:10022600D29AD09AD19ADA98D898D998912EE12F65
:10023600E058E0930205E12FE054E0930305A4E1C2
:10024600B0E024D01CD01BD01AD0A0E292DF80E907
:1002560091E00197F1F7A8E2A1DFA4E09FDFA5E80E
:100266009DDFA6E09BDFBADF199108955A92A42D6F
:10027600A3DFA881BDCF92DFA3E0B0E007C0A0E373
:1002860078DF80E991E00197F1F70895109639F04B
:10029600A89580EA9FE00197F1F71197C9F70895AD
:00000001FF
