:060000000C9456000C9464
:1000060000000C9400000C9400000C9400000C946A
:1000160000000C9400000C9400000C9400000C945A
:1000260000000C9400000C9400000C9400000C944A
:1000360000000C9400000C9400000C9400000C943A
:1000460000000C9400000C9400000C9400000C942A
:1000560000000C9400000C9400000C9400000C941A
:1000660000000C9400000C9400000C9400000C940A
:1000760000000C9400000C9400000C9400000C94FA
:1000860000000C9400001027E80364000A00010039
:1000960000100001100001005350490080C002000A
:1000A6000005A2000000F894EE27ECBBF1E0F5BFD6
:1000B600E5BFE0936C008DE0A2E0BB27ED938A9547
:1000C600E9F780E090E1A0E0B1E0ED930197E9F770
:1000D600E4EAF0E085919591009761F0A591B591DC
:1000E60005901590BF01F00105900D920197E1F77B
:1000F600FB01F0CF8BBFEFEFEDBFE0E1EEBFC0E05D
:10010600D5E00C948600E3E5EDB9E0E0EEB9EFE06A
:10011600E7BBEFEFE1BBA0E1A5D078D0E6E0EA933C
:10012600A0E062D0AEE9B0E08ED044245524662427
:100136007724C098EFEFEFB9779BFECF4FB05524E9
:100146006FB07724A1E0B0E039D2C09A8824992410
:10015600B42DA0E0F301F070EA2BFB2B4F01D6D0B3
:10016600662777275BD1A0E0B0E080E89DE3D8D191
:10017600A0E0B0E080E09FE384D117D14F01E6E034
:10018600EA93A1E031D0D401E4E6F0E096D095D030
:10019600DCD0E05DAE2F44D0A1E0B0E00FD2C5CFF9
:1001A600FFCF1A931A2FE2B3EF70AE2FE12FE07F45
:1001B600EA2BE2BB8BE18A95F1F7929A8BE18A955D
:1001C600F1F792988BE18A95F1F775C0AA93A88109
:1001D600E8DFE881E295E883A881E3DF88EC90E038
:1001E6000197F1F7219608951A930A931A2F0A8117
:1001F600E12FF0E0E050FB4FE081E00FAE2FE6DFAD
:10020600B02EA12E1981088123960895A2E061D00F
:10021600ACE0DCDFA1E05DD0E0E0AE2EBE2E0895BE
:100226001A931A2F1A3011F0BD1438F0E0E0EA9351
:10023600A394AA2DD9DF1A30F1F1B394909AA12F85
:10024600C5DF909838C050D09D01F9012F5F3F4F10
:10025600E4911E2FE03019F0A12FE2DFF6CF49D04E
:10026600249608951A931A2FE1B3E06FE1BB8A9A98
:10027600889A899A929890989198D12EE12FE05871
:10028600E0930205E12FE054E0930305A4E1B0E01A
:1002960095D123D022D021D0A0E283DF80E991E05E
:1002A6000197F1F7A8E292DFA4E090DFA5E88EDFE0
:1002B600A6E08CDFABDF1991089534D0DF01EAE0C8
:1002C600F0E043D0E05DAE2FABDFD401EAE0F0E032
:1002D60008957CDFA3E0B0E071C1A0E362DF80E9AE
:1002E60091E00197F1F708953A932A931A930A93A6
:1002F60008953B812A81198108810895F0956095BA
:100306007095E195FF4F6F4F7F4F0895F695E795EE
:10031600F695E795F695E79508956F2F660F660BA8
:10032600762F08950024112490E1AA0FBB1F001C0C
:10033600111C0E1A1F0A18F40E0E1F1E01C0A16012
:100346009A9599F7FD01D0010895ECDFFD01089516
:10035600552342F4503811F4E0FF04C03196691F6A
:10036600791F6BF050E8572711F45F93C8C05F3FC1
:1003760031F0660F000C57956795752F08955F93BA
:1003860000200AF0C7C0C0C050E8192E1522880FF9
:10039600991F9527550F879550E8072E0522660F5A
:1003A600771F7527550F67950895689401C0E894DF
:1003B6005F93F2DF703818F07F3F08F4A0C056E173
:1003C600571BAAF4519558300EF4593030F0EFEF20
:1003D600FFEF6FEF7FE777F91AC077275523B9F05C
:1003E600EE0FFF1F661F771F5A95D1F710C07727AC
:1003F600583028F0EF2FF62F672F5850F9CF552396
:1004060031F076956795F795E7955A95D1F70020DF
:100416000AF474DF5F910895689401C0E8943097F8
:1004260060407040B1F0002426F0772312F4009467
:1004360065DF172E7EE1112032F07A95EE0FFF1F51
:10044600661F111CF9CFEF2FF62F612D5F938ADF00
:100456005F9108954F93AF01FD01DA01AB01BC0135
:10046600CA01402D012C142E4F910895EA0FFB1F4F
:10047600681F0895E095F0956095EF5FFF4F6F4F09
:1004860008955F9381DF903839F1703821F1572F45
:10049600591B2BF112F4DEDFFACF583118F0AA27D8
:1004A600BB278827583028F0AB2FB82F88275850FD
:1004B600F9CF552329F08695B795A7955A95D9F77B
:1004C600502D512572F0D2DF38F46795F795E795F0
:1004D600739513F41FC0BEDF45DF5F910895D8F70B
:1004E600FBCFEA1BFB0B680B51F010F40094C2DF44
:1004F600662392F3EE0FFF1F661F7A95CBF7EE2762
:10050600FF27BF015F910895EFEFFFEF6FE77FEFE2
:100516005F910895EFEFFFEF6FE77FE75F91089533
:100526005F9332DF703859F3903849F30124089409
:10053600791F23F424F300203AF3ECCF0F921F9394
:100546002F933F934F93112722279927689FA00146
:100556008F9F302D410D591F6B9F300D411D591F27
:100566008E9F27D0BF9F25D06A9F23D0BE9F1DD0C8
:10057600AF9F1BD0AE9F110D291F391F491F591F51
:10058600E32FF42F652F522F4F913F912F911F91FB
:100596000F9066232AF0550FEE1FFF1F661F02C03D
:1005A60073954BF2D5DE5F910895100D211D391F0D
:1005B60002C0200D311D491F591F0895109639F0AC
:1005C600A89580EA9FE00197F1F71197C9F708957A
:00000001FF
