:0A0000000C944B000C9400000C94CB
:10000A0000000C9400000C9400000C9400000C9466
:10001A0000000C9400000C9400000C9400000C9456
:10002A0000000C9400000C9400000C9400000C9446
:10003A0000000C9400000C9495000C9400000C94A1
:10004A0000000C9400000C9400000C9400000C9426
:10005A0000000C9400000C9400000C9400000C9416
:10006A0000000C9400000C9400000C9400000C9406
:10007A0000000C9400000C9400000C9400000C94F6
:10008A000000FF00010004008C000000F894EE2735
:10009A00ECBBF1E0F5BFE5BFE0936C008DE0A2E0B8
:1000AA00BB27ED938A95E9F780E090E1A0E0B1E003
:1000BA00ED930197E9F7EEE8F0E0859195910097C5
:1000CA0061F0A591B59105901590BF01F0010590D9
:1000DA000D920197E1F7FB01F0CF8BBFEFEFEDBF78
:1000EA00E0E1EEBFC0E0D5E00C947B00E0E4EDB9BE
:1000FA00E0E0EEB9E7E4E3BFE0E0E2BFE1E0E7BF5A
:10010A00E0E8EFBFEFEFEABBEFE0E7BB5FB0A1E0EB
:10011A00B0E014D04FB85BBA779BFECFF7CFFFCFD2
:10012A00EA93EFB7EA937394EAE0E71519F4EFEF6D
:10013A004E267724E991EFBFE9911895109639F088
:10014A00A89580EA9FE00197F1F71197C9F70895FA
:00000001FF
