:0E0000000C9446000C9400000C9400000C942C
:10000E0000000C9400000C9400000C9400000C9462
:10001E0000000C9400000C9400000C9400000C9452
:10002E0000000C9400000C9400000C9400000C9442
:10003E0000000C9400000C9400000C9400000C9432
:10004E0000000C9400000C9400000C9400000C9422
:10005E0000000C9400000C9400000C9400000C9412
:10006E0000000C9400000C9400000C9400000C9402
:10007E0000000C9400000C9400000C940000F89406
:10008E00EE27ECBBF1E0F5BFE5BFE0936C008DE031
:10009E00A2E0BB27ED938A95E9F780E090E1A0E01E
:1000AE00B1E0ED930197E9F78BBFEFEFEDBFE0E124
:1000BE00EEBFC0E0D5E00C946400EFE0E2B9E1E001
:1000CE00E3B900E010E00530E0E01E0758F41A9A9C
:1000DE00A6E9B0E053D01A98A6E9B0E04FD00F5F72
:1000EE001F4FF1CFA8ECB0E049D0E2E0E3B9EFEF5B
:1000FE00E1BBE1E7E2BB00E010E00A35E0E01E07FD
:10010E0020F425D00F5F1F4FF8CF29D00A35E0E03D
:10011E001E0720F41CD00F5F1F4FF8CF2AD0E2E746
:10012E00E2BB00E010E0043BE0E01E0720F40FD03D
:10013E000F5F1F4FF8CF13D00830E7E01E0720F4F3
:10014E0006D00F5F1F4FF8CF14D0D3CFFFCF1A9A20
:10015E00A8ECB0E013D01A98A8ECB0E00FC0E0E025
:10016E00E3B9A8EEB3E00AD0E0E7E2BB00E010E0AE
:10017E000895E2E0E3B9A8EEB3E000C0109639F0BE
:10018E00A89580ED97E00197F1F71197C9F70895BB
:00000001FF
