:080000000C9446000C94000072
:100008000C9400000C9400000C9400000C94000068
:100018000C9400000C9400000C9400000C94000058
:100028000C9400000C9400000C9400000C94000048
:100038000C9400000C9400000C9400000C94000038
:100048000C9400000C9400000C9400000C94000028
:100058000C9400000C9400000C9400000C94000018
:100068000C9400000C9400000C9400000C94000008
:100078000C9400000C9400000C9400000C940000F8
:100088000C940000F894EE27ECBBF1E0F5BFE5BF57
:10009800E0936C008DE0A2E0BB27ED938A95E9F729
:1000A80080E090E1A0E0B1E0ED930197E9F78BBF24
:1000B800EFEFEDBFE0E1EEBFC0E0D5E00C946400E7
:1000C8002897E1E0E883E5E0E983E4E0EA83E6E015
:1000D800EB83E2E0EC83EAE0ED83E8E0EE83E9E03D
:1000E800EF83EFE0E7BBE4E6F0E060E070E00E2FBE
:1000F80030E0301788F410E0183060F4E12FF0E0B9
:10010800DE01AE0FBF1FEC91E8BBA8ECB0E006D053
:100118001F5FF2CF3F5FEDCF2896FFCF109639F0E3
:10012800A89580EA9FE00197F1F71197C9F708951C
:00000001FF
