:060000000C9453000C9467
:1000060000000C9400000C9400000C9400000C946A
:1000160000000C9400000C9400000C9400000C945A
:1000260000000C9400000C9400000C9400000C944A
:1000360000000C9400000C9400000C9400000C943A
:1000460000000C9400000C9400000C9400000C942A
:1000560000000C9400000C9400000C9400000C941A
:1000660000000C9400000C9400000C9400000C940A
:1000760000000C9400000C9400000C9400000C94FA
:1000860000000C9400000000407924301912027818
:100096000010020004008C000A0000058E0000001B
:1000A600F894EE27ECBBF1E0F5BFE5BFE0936C00FA
:1000B6008DE0A2E0BB27ED938A95E9F780E090E119
:1000C600A0E0B1E0ED930197E9F7E8E9F0E085916A
:1000D6009591009761F0A591B59105901590BF0196
:1000E600F00105900D920197E1F7FB01F0CF8BBF70
:1000F600EFEFEDBFE0E1EEBFC0E0D5E00C9483008A
:1001060010E0EFEFEABBE0E8E4BBEFEFE09361005D
:10011600EFE0E0936400E0E8E5BB10E0143118F48A
:100126001ED01F5FFBCFA2E0B0E078D0F20131967F
:100136002F01E0E1F7E2E415F50511F44424552416
:1001460098990BC0EFEFEBBB10E0143118F407D011
:100156001F5FFBCF989901C0F5CFDFCFFFCF3ED011
:10016600D201E8EEF3E027D02E2FD201E4E6F0E04C
:1001760022D03E2FD201EAE0F0E01DD00E2FD201B0
:10018600EAE0F0E048D01E2FE1E0E0936500E22FC0
:1001960018D0E2E0E0936500E32F13D0E4E0E093AB
:1001A6006500E02F0ED0E8E0E0936500E12F09D06E
:1001B6001AD0249608951CD0DF01EAE0F0E02BD097
:1001C6000895F0E0E050FB4FE081E0936200A2E08A
:1001D600B0E024D0E0E0E093650008953A932A93D6
:1001E6001A930A9308953B812A81198108810895FB
:1001F6000024112490E1AA0FBB1F001C111C0E1A2B
:100206001F0A18F40E0E1F1E01C0A1609A9599F7D9
:10021600FD01D0010895ECDFFD010895109639F037
:10022600A89580EA9FE00197F1F71197C9F708951D
:00000001FF
