:0C0000000C944C000C9400000C940000C8
:10000C000C9400000C9400000C9400000C94000064
:10001C000C9400000C9400000C9400000C948E00C6
:10002C000C9400000C9400000C9400000C94000044
:10003C000C9400000C949C000C9400000C94000098
:10004C000C9400000C9400000C9400000C94000024
:10005C000C9400000C9400000C9400000C94000014
:10006C000C9400000C9400000C9400000C94000004
:10007C000C9400000C9400000C9400000C940000F4
:10008C0000006300040004008C000000F894EE27CC
:10009C00ECBBF1E0F5BFE5BFE0936C008DE0A2E0B6
:1000AC00BB27ED938A95E9F780E090E1A0E0B1E001
:1000BC00ED930197E9F7E0E9F0E0859195910097D0
:1000CC0061F0A591B59105901590BF01F0010590D7
:1000DC000D920197E1F7FB01F0CF8BBFEFEFEDBF76
:1000EC00E0E1EEBFC0E0D5E00C947C00EFEFEABBA2
:1000FC00E1BBE1E4E7BFE7E0E3BFE0E0E2BFE5E05E
:10010C00E5BDE0E0E4BDE0E8EFBF21D0FECFFFCFDE
:10011C00EA93EFB7EA934394E5E2E41531F46A9479
:10012C00662011F4E3E66E2E44240DC0EA93EFB77B
:10013C00EA935394E2E1E51531F47394E4E6E715A0
:10014C0009F477245524E991EFBFE99118952CD047
:10015C00A62D18D02E2FA62D1ED03E2FA72D12D097
:10016C000E2FA72D18D01E2FE0671AD0E02FE06BB2
:10017C0017D0E32FE06D14D0E22FE06E11D019D020
:10018C0024960895B0E0EAE0F0E02FD0DF01EAE039
:10019C00F0E030D00895BB27EAE0F0E02BD00895D2
:1001AC00E2BBA2E0B0E042C03A932A931A930A93BE
:1001BC0008953B812A81198108810895F195E19573
:1001CC00F04008950024112490E1AA0FBB1F001CDD
:1001DC00111C0E1A1F0A18F40E0E1F1E01C0A1606E
:1001EC009A9599F7FD01D001089512D0EBDF0EF42A
:1001FC00E5DF0895E894B7FF04C0B195A195B04030
:10020C006894F7FDDBDFDEDFFD010EF4D7DF089528
:10021C00E894F7FF02C0D2DF6894B7FF06C0B1952F
:10022C00A195B04000F8039400FA0895109639F0A7
:10023C00A89580ED97E00197F1F71197C9F708950C
:00000001FF
